:107C00001F92CDB7DEB7112484B714BE982F97709A
:107C100009F4F7D085E08093810082E08093C00072
:107C200088E18093C10086E08093C20082E2809365
:107C3000C400569A5E98489A89E2CBD0689A88E048
:107C400020E33CEF91E0309385002093840096BBC5
:107C5000B09BFECF609AA8958150A9F784E090E090
:107C600092BD81BDF89A80B5D2D0A1D08033E9F71A
:107C7000B6D0812C912C13E001E025E0F22E31E109
:107C8000E32E95D0813479F492D08983A8D089816C
:107C9000823811F482E005C0813811F486E001C019
:107CA00083E075D071C0823411F484E103C085345F
:107CB00019F485E09FD068C0853549F478D0D82E76
:107CC00076D08D2C912C982A880C991C5CC0863516
:107CD00021F484E08FD080E0E4CF843609F036C010
:107CE00066D065D0D82E63D0C82EA12CBB24B39407
:107CF0005ED0F50181935F01DE12FACF70D0F5E41A
:107D0000CF1201C0FFCFF40117BFE89507B600FC02
:107D1000FDCFA401A0E0B1E02C911296CD01019716
:107D2000FC01808130E0382BFA01090107BFE8959A
:107D300011244E5F5F4FDA12EFCFF401F7BEE895E2
:107D400007B600FCFDCFE7BEE8951EC0843771F48E
:107D50002ED02DD0D82E2BD042D05401F5018591B4
:107D60005F0115D0DA94D110F9CF0EC0853739F400
:107D700036D08EE10CD085E90AD086E192CF8135EC
:107D800011F488E026D02BD080E101D07ACF9091F9
:107D9000C00095FFFCCF90649093C0005E9A8093E2
:107DA000C6008091C00086FFFCCF5E980895609A5F
:107DB0008091C00087FFFCCF8091C00084FD01C08E
:107DC000A8958091C600609A08959FEF9A95F1F763
:107DD0000895E0E6F0E098E1908380830895E7DF7E
:107DE000803219F088E0F5DFFFCFEFDFEEDFEDDF67
:107DF00084E1CDCFCF93C82FDADFC150E9F7CF911F
:107E0000EECF282E80E0E5DFE0E0FF270994CF9356
:107E1000DF93D82FC0E0CBDF893711F4C1E0FBCF6F
:107E2000863421F4C230B1F7C3E0F5CF853221F4B6
:107E3000C43081F7C5E0EFCF8D1304C0C63051F7D1
:107E4000C7E0E9CF803239F7C13049F0C33049F09B
:107E5000C53049F0C730F1F6DF91CF910895C2E007
:0A7E6000DACFC4E0D8CFC6E0D6CFD9
:0400000300007C007D
:00000001FF
